:020000040800F2
:10000000100500209D010008E311000837100008CA
:10001000E111000861040008551300080000000009
:10002000000000000000000000000000E7110008D0
:100030006304000800000000E5110008E911000851
:10004000B7010008B7010008B7010008B7010008B0
:10005000B7010008B7010008B7010008B7010008A0
:10006000B7010008B7010008B7010008B701000890
:10007000B7010008B7010008B7010008B701000880
:10008000B7010008B7010008B7010008B701000870
:10009000B7010008B7010008B7010008B701000860
:1000A000B7010008B7010008B7010008B701000850
:1000B000B7010008B7010008B7010008B701000840
:1000C000B7010008B7010008B7010008B701000830
:1000D000B7010008B7010008B7010008B701000820
:1000E000B7010008B7010008B7010008B701000810
:1000F000B7010008B7010008B7010008B701000800
:10010000B7010008B7010008B7010008B7010008EF
:10011000B7010008B7010008B7010008B7010008DF
:10012000B7010008B7010008B7010008B7010008CF
:10013000B7010008B7010008B7010008B7010008BF
:10014000B7010008B7010008B7010008B7010008AF
:10015000B7010008B7010008B7010008B70100089F
:10016000B7010008B7010008B7010008B70100088F
:10017000B7010008B7010008B7010008000000003F
:10018000B7010008B7010008DFF80CD000F056F9FD
:1001900000480047C936000810050020064880477F
:1001A00006480047FEE7FEE7FEE7FEE7FEE7FEE75C
:1001B000FEE7FEE7FEE7FEE77D1200088901000882
:1001C0002DE9F05F0546002092469B46884606468C
:1001D000814640241BE0284641464746224600F01F
:1001E0006EF853465A46C01A914110D3114618462C
:1001F000224600F055F82D1A67EB01084F462246BB
:100200000120002100F04CF817EB00094E41201EA0
:10021000A4F10104DFDC484631462A464346BDE8E6
:10022000F09FD2B201E000F8012B491EFBD27047CB
:100230000022F6E710B513460A4604461946FFF7B2
:10024000F0FF204610BD421C10F8011B0029FBD115
:10025000801A70470EB540F2334102910021CDE97A
:1002600000110A460B4600F049F803B000BDC1F387
:100270000A5210B5C1F3130140F2FF3341F480116B
:100280009A4201DA002010BD40F233439A42A2F2B2
:10029000334203DC524200F012F810BD904010BD12
:1002A000202A04DB203A00FA02F100207047914036
:1002B000C2F1200320FA03F3194390407047202A2B
:1002C00004DB203A21FA02F00021704721FA02F300
:1002D000D040C2F12002914008431946704710B542
:1002E000141E73F1000408DA401C41F10001921859
:1002F0005B411A4301D120F0010010BD2DE9F04D02
:1003000092469B4611B1B1FA81F202E0B0FA80F256
:1003100020329046FFF7C4FF04460F4640EA0A0029
:1003200041EA0B0153465A46084313D0114653EA9B
:10033000010019D0C8F140025046FFF7C0FF054642
:100340000E46504659464246FFF7AAFF084305D0DD
:10035000012004E020463946BDE8F08D0020054329
:1003600046EAE0762C4337430A986305E40AA0EB9B
:1003700008000022FD0A44EA47540A3002D5002052
:100380000146E9E7010510196941DDE90845001951
:100390006941BDE8F04DA2E72DE9F04D00231A4672
:1003A0001B1A8A4103DB00200146BDE8F08DC1F332
:1003B0000A52C1F3130141F480154FF0000BD1072D
:1003C00002D100186D41521E0027044640F2FF1171
:1003D000384601EB620A3E468046024600204FF452
:1003E0008011FFF76CFFC2197141BB1846EB010089
:1003F000B4EB030C75EB000C04D3E41A65EB0005B9
:1004000017460E46241908F101006D418046342834
:10041000E3DDF91946EB0600091BA84103D24FF0B2
:10042000FF32134601E0002213461BEB070046EBA8
:100430000A51BDE8F04DFFF752BF0000064C074DD2
:1004400006E0E06840F0010394E8070098471034A4
:10045000AC42F6D3FFF79CFE5C7B01087C7B010875
:10046000FEE7704772B6FEE770B5B3F5804F05D072
:100470006FF0704140F82210002070BD50F822400B
:10048000084B8E891C40D1E9003543EA05138D687D
:1004900089692D0245EA06452B430B43234340F867
:1004A0002230E9E70000F0CFF0B50C6850F82430B6
:1004B000114A1340D1E90125D1E903672A433E439C
:1004C00032434E6932438E693243CE6932430E6AFB
:1004D00032434E6A32438E6A3243CE6A3243CE6B27
:1004E000096B32430A431A43082D01D142F04002FE
:1004F00040F824200020F0BD8000F0FF30B500EB74
:10050000820250688D8900F04043D1E9000440EA3E
:1005100004108C68240244EA054420430C8A074DE9
:1005200005EB045420430C7D6D0105EB04648969DF
:100530002043084318435060002030BD0000F0FF06
:1005400070B5044600F04AF90546601C02D0044824
:100550000078044400F042F9401BA042FAD370BD79
:1005600054000020F0B587B014216846FFF760FE04
:1005700015480168002924D1012101601348002495
:10058000016841F0010101600068022500F00100EE
:1005900005904FF68070CDE9000502AA03260C27CE
:1005A00082E8D00069460A4800F016F84CF6B370AD
:1005B000CDE9000502AA694682E8D000054800F0AE
:1005C0000BF807B0F0BD00000000002038380240F2
:1005D00000100240000C02402DE9F84FDFF8BCA1EA
:1005E000002201250AF1040B03264FF00F090BF13D
:1005F000040E00BF0B6805FA02F42340A34270D139
:100600000F7907F00307012F01D0022F16D1876859
:100610004FEA420806FA08FC27EA0C07D1F80CC09A
:100620000CFA08FC4CEA070CC0F808C04768A7435E
:100630000C79C4F3001494403C4344600C79E443C7
:10064000A4070AD0C4684FEA420C06FA0CF7BC4370
:100650008F6807FA0CF72743C7600C7904F003048E
:10066000022C12D1D40800EB840CDCF82040570790
:10067000FF0E09FA07F824EA0804D1F8108008FAF6
:1006800007F848EA0408CCF8208004684FEA420CD6
:1006900006FA0CF7BC430F7907F0030707FA0CF7CB
:1006A000274307604C6814F4403F70D03C4C2768E7
:1006B00047F480472760246822F0030704F480444D
:1006C0000094384C07EB040CDCF8084897074FEA15
:1006D000177809FA08F7BC43334FB84202D1002714
:1006E00024E054E0314FB84201D101271EE0304FE1
:1006F000B84201D1022719E02E4FB84201D1032799
:1007000014E02D4FB84201D104270FE02B4FB8421F
:1007100001D105270AE02A4FB84201D1062705E09A
:10072000284FB84201D1072700E0082707FA08F749
:100730002743CCF80878DAF800405746D1F804C0CF
:100740009C435FEACC3C00D51C433C60DBF8004096
:100750005F46D1F804C09C435FEA8C3C00D51C4343
:100760003C60DEF800407746D1F804C09C435FEA65
:10077000CC2C00D51C433C60084F0C373C68D1F8AA
:1007800004C09C435FEA8C2C00D51C433C60521C87
:10079000102AFFF42FAFBDE8F88F0000003C0140A5
:1007A0004438024000300140000002400004024092
:1007B00000080240000C02400010024000140240F9
:1007C00000180240001C02400069084000D00120CF
:1007D00070470AB1816170470904FBE701488068EE
:1007E00070470000540000200248816802781144DC
:1007F00081607047540000200B4810B5016841F437
:1008000000710160016841F480610160016841F498
:1008100080710160032000F061F80F2000F006F8FD
:1008200000F024F8002010BD003C024070B50D4DD2
:1008300004464FF47A712878B1FBF0F00A49096850
:10084000B1FBF0F000F009FB48B9102C07D20022F0
:100850002146501E00F022F800206C6070BD01207F
:1008600070BD000054000020600000200A4808B558
:10087000016841F480410160006800F4804000900C
:100880000548001F016841F080510160006800F0D8
:100890008050009008BD000044380240F0B40E4B78
:1008A0001B680C46C3F30223C3F10705042D00D9CE
:1008B0000425191D072901D2002300E0DB1E0126B3
:1008C00006FA05F1491E214099409E40761E1640C9
:1008D0003143F0BC00F054BD0CED00E0064900F0DF
:1008E000070208684FF6FF03184040EA0220034A57
:1008F00010430860704700000CED00E00000FA05AE
:100900002DE9F0470E46050065D0DFF81481D8F8D0
:100910000000F7B200F00700B04207D288F800707C
:10092000D8F8000000F00700B04254D128683D4CD0
:10093000810712D5400703D5206840F4E0502060BD
:100940002878000703D5206840F4604020602068C4
:10095000A96820F0F000084320602878C0072DD057
:10096000304968680839012812D0022813D00328BA
:1009700011D00968890700292DDA216821F00301C7
:1009800001432160FFF72AFF814641F2883A0EE0D9
:1009900009688903EFE709688901ECE7FFF71EFFA3
:1009A000A0EB0901514502D90320BDE8F08720687A
:1009B000696800F00C00B0EB810FEFD1D8F800109F
:1009C000404601F00701B14207D90770006800F006
:1009D0000700B04201D00120E7E72878400705D59D
:1009E0002068E96820F4E050084320602878000778
:1009F00006D52068296920F4604040EAC1002060E3
:100A000000F018F82168084AC1F30311515CC8408E
:100A10000649086006480068FFF708FF0020C4E7A1
:100A2000003C024008380240147B010860000020AE
:100A300058000020154810B5006810F00C0214484A
:100A400013D04110042A0FD0082A0ED10F4C241FB6
:100A50002268236802F03F025B0207D52068C0F3DA
:100A60008810A0FB010106E0084610BD2168C1F313
:100A70008811A1FB00010023FFF7A2FB2168C1F34D
:100A80000141491C4900B0FBF1F010BD083802409B
:100A90000024F4002DE9F84F04006ED02078DFF830
:100AA0004C93C007A9F104054AD009F1040001687C
:100AB000C1F38101012908D00068C0F38100022838
:100AC0000AD1D9F80000400206D52868800337D53E
:100AD00060680028E1D033E06068B0F5803F10D056
:100AE000B0F5A02F286810D020F480302860286846
:100AF00020F4802028606068A8B1FFF76FFE0646EA
:100B00000DE0286840F48030F4E740F4802028604D
:100B1000F7E700BFFFF762FE801B642873D82868E0
:100B20008003F7D50CE0FFF759FE064605E000BF4D
:100B3000FFF754FE801B6428F0D828688003F7D4A0
:100B40002078DFF8AC8280074FF0000A3ED5A74836
:100B5000001D016811F00C0F08D00068C0F381007F
:100B600002280BD1D9F80000400207D4286880077A
:100B700016D5E068012800D112E033E1E068B8B191
:100B80000120C8F80000FFF729FE064605E000BF77
:100B9000FFF724FE801B0228C0D828688007F7D5FD
:100BA0002868216920F0F80040EAC10028600DE0C3
:100BB000C8F800A0FFF712FE064604E0FFF70EFE9D
:100BC000801B02281FD828688007F7D420780007E8
:100BD00022D5864F87486169703771B10121016064
:100BE000FFF7FCFD064604E0FFF7F8FD801B022836
:100BF00009D838688007F7D50EE0C0F800A0FFF7E5
:100C0000EDFD064605E082E0FFF7E8FD801B0228C7
:100C10007DD838688007F7D42078400768D5DFF89A
:100C2000CCB100270BF13C0BDBF80000C0000BD46B
:100C3000DBF8001041F08051CBF80010DBF8000029
:100C4000012700F0805000906B4E3068C00510D432
:100C5000306840F480703060FFF7C0FD009005E020
:100C6000FFF7BCFD0099401A022850D83068C00533
:100C7000F6D55E4EA0686C3601280FD00528306886
:100C800010D020F001003060306820F004003060A7
:100C9000A068B8B1FFF7A2FD00900FE0306840F007
:100CA0000100F4E740F004003060F7E7FFF796FD3D
:100CB0000099411A41F28830814266D83068800735
:100CC000F4D50EE0FFF78AFD009007E0FFF786FD00
:100CD0000099411A41F28830814256D83068800725
:100CE000F4D42FB1DBF8001021F08051CBF80010C4
:100CF000A069C8B33D49091D0968C1F381010229F2
:100D00004AD00228504607D0C8F8600000E03CE016
:100D1000FFF764FD04463BE04746C8F86000FFF774
:100D20005DFD064605E000BFFFF758FD801B022869
:100D30002BD828688001F7D4D4E907010843A16AB9
:100D40002E4A490802EB0141626A41EA82110843D6
:100D500094F82C1040EA0161C9F8001001203866AF
:100D6000FFF73CFD044606E03EE000BFFFF736FD1E
:100D7000001B022809D828688001F7D534E000BF9D
:100D8000FFF72CFD001B022802D90320BDE8F88FD5
:100D900028688001F4D427E00128F7D0D9F80000B2
:100DA000E26900F4800191421CD1226A00F03F0107
:100DB000914217D147F6C071626A0140B1EB821FC0
:100DC00010D1A26A4FF0FF3300F4403103EB52021E
:100DD000B1EB024F06D194F82C1000F07060B0EB2C
:100DE000016F01D00120D1E70020CFE70438024095
:100DF00000004742800E4742007000400000FFFFA5
:100E000070B515460E46040003D094F8490010B1A1
:100E100007E0012070BD002084F84800204600F063
:100E20001AF804F108012068FFF73EFB3146A2687A
:100E30002068FFF763FBD4E901022946236BFFF723
:100E400013FBA168206850F8212042F0010240F80D
:100E50002120002070BDFFF785BB10B5401EB0F10A
:100E6000807F01D3012010BD4FF0E02460610F218D
:100E7000601700F085FA0020A061072020610020A3
:100E800010BD000070B590F83C20012A32D001243A
:100E900080F83C40022280F83D2003685A689D6833
:100EA00022F070060A6832435A60134B02689A4275
:100EB00014D0B2F1804F11D0104B9A420ED0104B8B
:100EC0009A420BD00F4B9A4208D00F4B9A4205D052
:100ED0000E4B9A4202D00E4B9A4204D1496825F03B
:100EE00080031943916080F83D40002180F83C1058
:100EF000084670BD022070BD0000014000040040A3
:100F000000080040000C0040000401400040014087
:100F10000018004010B5040003D094F83D0010B153
:100F200007E0012010BD002084F83C00204600F0BE
:100F30001FF8022084F83D00211D206800F0A6F96A
:100F4000012084F8460084F83E0084F83F0084F8CD
:100F5000400084F8410084F8420084F8430084F89B
:100F6000440084F8450084F83D00002010BD0000D6
:100F700008B500680649884208D10648016841F072
:100F800010010160006800F01000009008BD000032
:100F9000001000404038024090F83D10012901D077
:100FA00001207047022180F83D10006811498842F5
:100FB00014D0B0F1804F11D00F4988420ED00F49A4
:100FC00088420BD00E49884208D00E49884205D08D
:100FD0000D49884202D00D49884204D1816801F050
:100FE0000701062903D0016841F0010101600020DA
:100FF000704700000000014000040040000800406D
:10100000000C004000040140004001400018004076
:1010100001680A6A41F211131A4207D10A6A9B1049
:101020001A4203D10A6822F001020A60012180F805
:101030003D1000207047FEE700B58FB01C216846C8
:10104000FFF7F6F81C2107A8FFF7F2F81A484FF04F
:101050002041102201601949416000218160C16076
:10106000C0E904128161C16113020162C0E9091380
:101070009302C0E90B134163816341640120009036
:101080000F200DF1080C112301908CE80F00069140
:10109000CDE907100DF1240C03208CE80F000D9111
:1010A00007AA69460448FFF7ABFE002801D0FFF706
:1010B000D9F90FB000BD000068000020040100A0B5
:1010C0002DE9F04387B014216846FFF7B1F83048A6
:1010D0000026016841F080010160016801F0800193
:1010E0000591016841F004010160016801F004010B
:1010F0000591016841F002010160016801F00201FF
:101100000591016841F010010160016801F01001D2
:101110000591016841F0080101600068DFF8748002
:1011200000F008000590012210214046FFF751FB16
:10113000DFF864904AF20107012239464846FFF77A
:1011400048FB01241020CDE90004022569464046F1
:10115000CDE90245FFF740FA2020CDE900066946B7
:1011600002954046FFF738FACDE9007469464846D3
:10117000CDE90245FFF730FAA003CDE90006694644
:1011800002944846FFF728FA07B0BDE8F083000054
:101190003038024000080240000402401CB5002420
:1011A0000E4800940C49019401604721C0E90114E4
:1011B0004FF6FF718461C160FFF7ACFE08B1FFF725
:1011C00051F90094694605480194FFF75BFE002839
:1011D00001D0FFF747F91CBD00100040B800002007
:1011E000FEE7FEE770477047FFF7FEBA30B593B0F1
:1011F00030216846FFF71CF814210CA8FFF718F8F7
:101200001C480025016841F080510160006800F031
:10121000805011901848016841F4804101600068D5
:10122000022400F4804011900120009000040190FD
:101230008001CDE9064008AA0420482182E8130075
:101240000B906846FFF726FC08B172B6FEE70CA9C2
:101250000F2081E831004FF48050CDE90F050221C5
:101260000CA8FFF74DFB002801D072B6FEE713B0C3
:1012700030BD000040380240007000400248016864
:1012800041F470010160704788ED00E0F0B502683C
:10129000254C264D264E274F274B4FF0804CA04221
:1012A00009D0604507D0A84205D0B04203D0B8426B
:1012B00001D0984204D122F0700E4A6842EA0E0230
:1012C000A0421BD0604519D0A84217D0B04215D01B
:1012D000B84213D0984211D0184DA8420ED0184DE4
:1012E000A8420BD0174DA84208D0174DA84205D0F0
:1012F000164DA84202D0164DA84203D122F44075E3
:10130000CA682A434D6922F080022A4302608A6833
:10131000C2620A688262A04201D0984201D1096982
:10132000016301214161F0BD000001400004004063
:1013300000080040000C0040000401400040014053
:10134000004401400048014000180040001C0040DB
:1013500000200040FEE700000FB4084B10B504A9C0
:1013600002AA039800F0BAF8044602A9002000F08F
:10137000E6FA204610BC5DF814FB00003F19000897
:101380000907090E002804DB00F1E02080F80014B2
:10139000704700F00F0000F1E02080F8141D704746
:1013A00000B52DED048BB0EE409AF0EE609A83B05C
:1013B00051EC190BFEF7F0FF41EC180B18EE100A78
:1013C00018EE901A8DED008B002818BF01200843FD
:1013D00020F00040C0F17F6000F1E040C00F14D069
:1013E00019EE101A19EE900A8DED009B002918BF16
:1013F0000121084320F00040C0F17F6000F1E0408F
:10140000C00F04BF012000F017F8B0EE480A03B087
:10141000F0EE680ABDEC048B00BD02E008C8121FA4
:1014200008C1002AFAD170477047002001E001C1CD
:10143000121F002AFBD17047014908607047000065
:10144000640000202DE9F05F15461C46DDF828B049
:101450000E46074601EB040800EB050A1FFA88F167
:101460001FFA8AF05A4600F0B3FEA7EB05091FFAEF
:1014700088F11FFA89F05A4600F0AAFEA6EB04088C
:101480001FFA88F11FFA8AF05A4600F0A1FE1FFAEF
:1014900088F11FFA89F05A4600F09AFE06EB05081B
:1014A00007EB04091FFA88F11FFA89F05A4600F089
:1014B0008FFE3C1B1FFA88F1A0B25A4600F088FE4E
:1014C000751BA9B21FFA89F05A4600F081FEA9B235
:1014D000A0B25A46BDE8F05F00F07ABE2DE9FF4F9A
:1014E0008DB00F460546002606E025280BD0DDE925
:1014F0000F1290476D1C761C28780028F5D111B08A
:101500003046BDE8F08F0024A246A1460122EC49F6
:1015100000E0044315F8013F203B02FA03F00842C3
:10152000F7D128782A2810D06FF02F022878A0F160
:101530003001092914D80AEB8A0102EB410144F079
:10154000020400EB010A6D1CF0E701CF5FEA000A1C
:1015500003D544F40054CAF1000A44F002046D1C9F
:1015600028782E2817D115F8010F44F004042A28F2
:101570000ED06FF02F022878A0F1300109290AD887
:1015800009EB890102EB410100EB01096D1CF2E757
:1015900057F8049B6D1C28786C280FD006DC4C286B
:1015A00017D068280DD06A2814D104E0742810D010
:1015B0007A280FD10DE044F400140AE044F48014BA
:1015C00001E044F440146978814202D104F58014AA
:1015D0006D1C6D1C2A786E2A1FD00CDC632A31D05A
:1015E00004DC002A8BD0582A11D1A3E0642A68D0E9
:1015F000692A0CD165E0732A2ED004DC6F2A73D0DF
:10160000702A04D19BE0752A6FD0782A6ED01046DC
:10161000DDE90F129047761C50E1C4F30250022816
:1016200006D0032809D0042801CF09D0066045E17F
:1016300001CFF117C0E9006140E101CF06803DE133
:1016400006703BE117F8040B8DF8000000208DF8C0
:101650000100EB46012003E057F804BB4FF0FF30D8
:1016600061074FF0000102D40DE008F10101884646
:1016700049450FDA8045F8DB1BF808100029F4D142
:1016800008E008F1010188468142FADB1BF80810E6
:101690000029F6D1DDE90F23AAEB08008146214697
:1016A00000F036F9304400EB080604E0DDE90F12E3
:1016B0001BF8010B9047B8F10108F7D221464846C4
:1016C000F7E00A21C4F302534FF0000B0891022BFC
:1016D00004D001CFC117032B09D00AE0FF1D27F06A
:1016E0000707F7E8020108E032E01FE020E000B25F
:1016F000C117042B01D140B2C117031E71F10003C1
:1017000007DA4FF0000CD0EB0C006CEB01012D233D
:1017100002E0230504D52B238DF82430012303E0B8
:10172000E30701D02023F7E7984658E00A2110E0AC
:1017300010210EE010204FF0000B08900CE010215B
:101740004FF0000B44F004044FF00809089103E047
:1017500008214FF0000B0891C4F30253022B04D070
:1017600001CF0021032B06D006E0FF1D27F007075D
:10177000F7E8020103E080B2042B00D1C0B24FF0C1
:10178000000823072BD5702A07D0DDF820C08CF085
:10179000100C5CEA0B0C05D00EE040238DF82430D1
:1017A000012308E050EA010306D030238DF82430ED
:1017B0008DF8252002239846DDF820C08CF0080C17
:1017C0005CEA0B0C0BD150EA010301D1630706D58B
:1017D00030238DF824304FF00108A9F10109582A6F
:1017E00004D038A20B9208AA0A920BE03AA2F9E7B9
:1017F0005B46089AFEF7E4FC0B9B9B5C0A9A521E20
:101800000A92137050EA0102F2D10A98ADEB00007F
:1018100000F1200B600702D524F4803401E04FF082
:101820000109D94502DDA9EB0B0000E0002000EB27
:101830000B0141440890AAEB010AE00306D4DDE95C
:101840000F232146504600F063F806444FF000098C
:1018500008E009A911F80900DDE90F12904709F124
:101860000109761CC145F4DBE0030CD5DDE90F234B
:101870002146504600F04CF8064404E0DDE90F1222
:1018800030209047761C0899481E08900029F5DC06
:1018900008E00A980A990078491C0A91DDE90F12BC
:1018A0009047761CBBF10001ABF1010BF1DC214646
:1018B0005046DDE90F2300F019F806446D1C1BE6C5
:1018C0000928010030313233343536373839616216
:1018D00063646566000000003031323334353637DA
:1018E0003839414243444546000000002DE9F041AB
:1018F000044600251E461746880404D405E03946F0
:101900002020B0476D1C641EF9D52846BDE8F08143
:101910002DE9F041044600251E469046C80301D536
:10192000302700E02027880404D505E041463846EA
:10193000B0476D1C641EF9D52846BDE8F0810A68E1
:10194000531C0B6010707047FEB51CA000F0ACF883
:1019500010251FA0CDE9000500244FF6E0763346A0
:101960001F221E2102940A2001F0C6FF20A0CDE90B
:10197000000533461F22322102940A2001F0BCFFE9
:10198000182021A1CDE90010012433461F22029422
:1019900046210A2001F0B0FF202021A1CDE900104E
:1019A00033461F22029464210A2001F0A5FFBDE8FE
:1019B000FE404FF49660FEF7C3BD0000B2E2CAD409
:1019C000373AD6D0CEC4CFD4CABEB2E2CAD4000011
:1019D00031365831363ACEA2D1A9B5E7D7D3D3D0D4
:1019E000CFDEB9ABCBBEBBB6D3ADC4FA00000000AE
:1019F00031365831363A57656C636F6D65CEA2D17A
:101A0000A9B5E7D7D300000032345832343AC9EED2
:101A1000DBDACAD0D6D0CEC4B2E2CAD4000000000D
:101A200033325833323AD7D6CCE5B2E2CAD40000CA
:101A300000F0F800000201F0FC0140EAC10040EAB9
:101A4000D200704770B54FF6FA710A4D081A84B289
:101A5000286844622846FFF79FFA4FF6F971286814
:101A600001E0426A94B28C42FBD3BDE87040014869
:101A7000FFF7CEBAB80000202DE9F0479846DDE91F
:101A8000085491460E46074600F026FC23462A4697
:101A90004146484600F020FC33463A462146284657
:101AA000BDE8F04700F018BC2DE9FE4380464FF634
:101AB000FF75284600F0B8FB194C1F2600962088B9
:101AC0000021401E82B21423084600F07DFC0096DF
:101AD0006088411E8BB221881438491E8AB281B2B7
:101AE000002000F071FC0F48012610270580CDF87A
:101AF0000080CDE901761F232A460221002000F054
:101B000071FB09A0CDE90007029660881F231238F7
:101B100081B22A46002000F065FBBDE8FE8300008C
:101B20000001002008000020687474703A2F2F779D
:101B300077772E7761766573686172652E6E65744E
:101B400000000000FEB524A0FFF7AEFF0C2527A083
:101B5000CDE9000500244FF6E0773B461F221E2109
:101B600002940A2001F0C8FE01262BA08DE8610036
:101B70003B461F222D210A2001F0BEFE31A0CDE9F7
:101B800000053B461F223C2102940A2001F0B4FECE
:101B9000102534A0CDE900053B461F2250210294B8
:101BA0000A2001F0A9FE3AA08DE861003B461F2201
:101BB00064210A2001F0A0FE40A0CDE900053B46CB
:101BC0001F22782102940A2001F096FEBDE8FE4013
:101BD0004FF49660FEF7B4BCB2E2CAD4363AD3A250
:101BE000CEC4CFD4CABEB2E2CAD400003658313215
:101BF0003A6162636465666768696A6B6C6D6E6F93
:101C0000707172737475767778797A3031323334D3
:101C10003536373839000000365831323A414243C0
:101C20004445464748494A4B4C4D4E4F50515253FC
:101C30005455565758595A3031323334353637386F
:101C400039000000365831323A7E21402324255E87
:101C5000262A28295F2B7B7D3A3C3E3F2F7C2D2B6B
:101C60002E000000385831363A6162636465666759
:101C700068696A6B6C6D6E6F70717273747576776C
:101C800078797A30313233343536373839000000DC
:101C9000385831363A4142434445464748494A4B11
:101CA0004C4D4E4F505152535455565758595A3027
:101CB0003132333435363738390000003858313650
:101CC0003A7E21402324255E262A28295F2B7B7D0E
:101CD0003A3C3E3F2F7C2D2B2E0000002DE9F04F8B
:101CE00089B01D461446DDE912324FF0000BCDF8E5
:101CF00004B0A94205D90E46294635460646204677
:101D0000344696B2B54204D92A4635469EB2234699
:101D10003446A94205D90E46294635460646204690
:101D200034461FFA82F80E46414518D102468442D5
:101D300001D2204601E000D9224699B2814201D267
:101D4000084602E0914200D90A46374933460988DD
:101D50000091194600F038FB09B0BDE8F08F211A58
:101D60000791A91B0691814699B2A1EB0900029047
:101D7000A8EB06000390081B0490A8EB0500059053
:101D8000454501D1AA4602E0681E1FFA80FA37468F
:101D900020E00698039A9BFBF0F101EB0900019902
:101DA000079B91FBF2F202EB09018AB29B44DDE949
:101DB000011380B219440191904202D901461046A4
:101DC0000A4619493B4609880091194600F0FCFA79
:101DD0007F1CBFB25745DCD90499781B00FB01FA80
:101DE0000298BD1B45431CE00599049B9AFBF1F04A
:101DF0000399204495FBF1F202EB09018AB20299A2
:101E000080B29A440D44904202D9014610460A46D7
:101E100005493B4609880091194600F0D5FA7F1C18
:101E2000BFB24745E0D997E7080000202DE9F84FF9
:101E300090461E46894682460024724203200A9933
:101E400000EB4205C9B930E0274608E03B46224690
:101E500049465046CDF80080FFF7F4FA7F1CB742A0
:101E6000F4DD002D03DA05EB8405AD1D04E0A01BB5
:101E700005EB80050A35761E641CB442E4DDBDE83E
:101E8000F88F3346224649465046CDF80080FFF78A
:101E9000D9FA002D03DA05EB8405AD1D04E0A01B83
:101EA00005EB80050A35761E641CB442E9DDE6E7E1
:101EB0002DE9F0411E4615468A19521E93B2421969
:101EC000521E92B2069F01F0C3FA0024754309E046
:101ED00007EB440117F81400497840EA012001F0AB
:101EE000DBFB641CA542F3DC064841880088491EE0
:101EF000BDE8F041401E8BB282B20021084601F0DD
:101F0000A7BA0000000100202DE9FF4F83B004466E
:101F10004020CDE90040DDF844B000274FF08009B3
:101F20003148109A07EB071110F8113012789342DC
:101F300040D100EB410A10989AF801104078814294
:101F400038D1049804990F3083B204F10F0082B2A3
:101F5000204601F07DFA002600250AEB060800BFA6
:101F6000BBF1000F13D021490598088098F80210A2
:101F700029FA05F0014203D02046049900F0FAF94D
:101F8000641C0098A4B2201A102826D00AE098F801
:101F9000021029FA05F0014201D0059800E00698E8
:101FA00001F07AFB6D1CEDB2082DD9D3761CF6B288
:101FB000202ED1D37F1C0198BFB28742B0D30C48EA
:101FC0004188008807B0491EBDE8F04F401E8BB223
:101FD00082B20021084601F03BBA0498009C401CE4
:101FE00080B20490E2E700003455000808000020A9
:101FF000000100202DE9FF4F83B004460720CDE902
:102000000040DDF844B000274FF0800907EB87005F
:1020100000EB47113048109A10F8113012789342B3
:1020200040D100EB410A10989AF8011040788142A3
:1020300038D104980499173083B204F1170082B2A2
:10204000204601F005FA002600250AEB060800BF2D
:10205000BBF1000F13D021490598088098F80210B1
:1020600029FA05F0014203D02046049900F082F9D4
:10207000641C0098A4B2201A182826D00AE098F808
:10208000021029FA05F0014201D0059800E00698F7
:1020900001F002FB6D1CEDB2082DD9D3761CF6B20F
:1020A000482ED1D37F1C0198BFB28742AED30C48D3
:1020B0004188008807B0491EBDE8F04F401E8BB232
:1020C00082B20021084601F0C3B90498009C401C6C
:1020D00080B20490E2E70000B45D00080800002030
:1020E000000100202DE9FF4F83B004460420CDE914
:1020F0000040DDF844B000274FF080093148109AC5
:1021000007EB871110F811301278934240D100EBA1
:10211000410A10989AF801104078814238D1049809
:1021200004991F3083B204F11F0082B2204601F0EF
:102130008FF9002600250AEB060800BFBBF1000F4F
:1021400013D021490598088098F8021029FA05F063
:10215000014203D02046049900F00CF9641C009859
:10216000A4B2201A202826D00AE098F8021029FAF2
:1021700005F0014201D0059800E0069801F08CFAC4
:102180006D1CEDB2082DD9D3761CF6B2802ED1D3BA
:102190007F1C0198BFB28742B0D30C4841880088A9
:1021A00007B0491EBDE8F04F401E8BB282B200213D
:1021B000084601F04DB90498009C401C80B2049080
:1021C000E2E70000BA5F00080800002000010020DC
:1021D00010B5144601F038F92046BDE8104001F072
:1021E0005BBA00002DE9FE431F46DDE90A46904632
:1021F000894620460C9DFEF726F80A4980B24042E7
:102200000988CDE9004601EBC00000EBD070C0F3B7
:102210004F003B4642464946029501F06DFBBDE842
:10222000FE8300000001002030B505460A480488FE
:10223000408821464443491E401E8AB283B2002191
:10224000084601F005F90021044801E00580491C19
:10225000A142FBD330BD0000000100200000016C52
:1022600010B417494FF4285204008A814FF42C52BD
:10227000CA814FF430520A814FF438524A814FF4E8
:10228000F0734FF448724FF458500BD0012C0DD01E
:10229000022C0FD0032C11D10A804B80A02110BC3E
:1022A00001F00ABA0B804A800021F8E70A804B80CF
:1022B0006021F4E70B804A80C021F0E710BC704732
:1022C0000001002038B5034C2488009400F07CF80D
:1022D00038BD0000080000202DE9FE4F161ACDE998
:1022E00000104FF000085D1A47464FF0FF30002EF7
:1022F00002DD4FF0010102E003D14FF000018B46F7
:1023000002E08346C6F10006002D02DD4FF0010019
:1023100002E003D14FF00000824602E08246C5F1A0
:102320000005AE4201DD344600E02C46601C4FF053
:102330000009029018E0009881B2019880B200F084
:1023400019F8B0442F44A04504DD0198A8EB040817
:1023500058440190A74203DD00983F1B5044009071
:1023600009F101001FFA80F902998945E3DDBDE812
:10237000FE8F000000B501F067F8024802490088AE
:10238000088000BD080000200000016C2DE9F0412C
:102390001C4615460E4607460B46FFF79DFF3A467C
:1023A000234631461046FFF797FF23462A46194633
:1023B0003846FFF791FF2A4623463146BDE8F041F3
:1023C0001046FFF789BF00002DE9F041141A641C84
:1023D000A6B25C1A641CA7B2DDF8188001F038F8C8
:1023E00000250AE0002404E0404601F055F9641C91
:1023F000A4B2B442F8D36D1CADB2BD42F2D30648CC
:1024000041880088491EBDE8F041401E8BB282B26F
:102410000021084601F01CB80001002010B500F0B2
:10242000C1FFFF484FF4704101805522811C0A8092
:102430004FF201020280AA220A804FF202020280B9
:1024400052220A804FF20302028008220A804FF2D1
:102450000402028001220A804FF4364202803422B4
:102460000A804BF20162028034220A804BF202623F
:10247000028034220A804FF4304202800D220A800A
:102480004BF2010202800D220A804BF2020202800E
:102490000D220A804FF43742028024220A804BF238
:1024A0000172028024220A804BF2027202802422EE
:1024B0000A804FF4314202800D220A804BF2011251
:1024C00002800D220A804BF2021202800D220A8045
:1024D0004FF43842028024220A804BF60102028027
:1024E00024220A804BF60202028024220A804FF442
:1024F0003242028000220A804FF4394202802422B4
:102500000A804BF60112028024220A804BF6021246
:10251000028024220A804FF43342028005220A807E
:102520004BF20132028005220A804BF20232028015
:1025300005220A804FF43A42028034230B80531C58
:10254000038034230B80931C038034230B804FF4CF
:10255000354303800B230B804BF2015303800B2088
:102560000880AF48591C01800B23811C0B804FF45D
:102570003C43038000230B804BF601430380A323DD
:102580000B804BF60243038000230B804FF43D4346
:10259000038000230B804BF601530380A3230B80A1
:1025A0004BF60253038000240C804FF43E44048019
:1025B00000240C804BF60164048063240C804FF4EB
:1025C0005144048000240C804DF20114048037240F
:1025D0000C804DF20214048000240C804DF2031490
:1025E000048052240C804DF20414048000240C80DA
:1025F0004DF2051404807B240C804DF206140480F7
:1026000000240C804DF20714048099240C804DF2B4
:102610000814048000240C804DF209140480B124B5
:102620000C804DF20A14048000240C804DF20B142F
:102630000480D2240C804DF20C14048000240C8001
:102640004DF20D140480F6240C804DF20E1404801B
:1026500001240C804DF20F14048027240C804DF2CD
:102660001014048001240C804DF2111404804E24B7
:102670000C804DF21214048001240C804DF21314CE
:1026800004808C240C804DF21414048001240C80EE
:102690004DF215140480BE240C804DF216140480F3
:1026A00002240C804DF2171404800B240C804DF290
:1026B0001814048002240C804DF21914048048245C
:1026C0000C804DF21A14048002240C804DF21B146D
:1026D00004804A240C804DF21C14048002240C80D7
:1026E0004DF21D1404807E240C804DF21E140480D3
:1026F00002240C804DF21F140480BC240C804DF287
:102700002014048002240C804DF221140480E12462
:102710000C804DF22214048003240C804DF223140B
:10272000048010240C804DF22414048003240C80B7
:102730004DF22514048031240C804DF226140480BF
:1027400003240C804DF2271404805A240C804DF28F
:102750002814048003240C804DF22914048073246F
:102760000C804DF22A14048003240C804DF22B14AB
:10277000048094240C804DF22C14048003240C80DB
:102780004DF22D1404809F240C804DF22E140480F1
:1027900003240C804DF22F140480B3240C804DF2DE
:1027A0003014048003240C804DF231140480B924C9
:1027B0000C804DF23214048003240C804DF233144B
:1027C0000480C1240C804FF45244048000240C8007
:1027D0004DF20124048037240C804DF20224048041
:1027E000002008800E48611C01805224811C0C804E
:1027F0004DF20424048000240C804DF20524048052
:102800007B240C804DF20624048000240C804DF2C1
:102810000724048099240C804DF20824048001E0F0
:10282000FEFF006C00240C804DF209240480B124CA
:102830000C804DF20A24048000240C804DF20B24FD
:102840000480D2240C804DF20C24048000240C80DF
:102850004DF20D240480F6240C804DF20E240480E9
:1028600001240C804DF20F24048027240C804DF2AB
:102870001024048001240C804DF2112404804E2485
:102880000C804DF21224048001240C804DF213249C
:1028900004808C240C804DF21424048001240C80CC
:1028A0004DF215240480BE240C804DF216240480C1
:1028B00002240C804DF2172404800B240C804DF26E
:1028C0001824048002240C804DF21924048048242A
:1028D0000C804DF21A24048002240C804DF21B243B
:1028E00004804A240C804DF21C24048002240C80B5
:1028F0004DF21D2404807E240C804DF21E240480A1
:1029000002240C804DF21F240480BC240C804DF264
:102910002024048002240C804DF221240480E12430
:102920000C804DF22224048003240C804DF22324D9
:10293000048010240C804DF22424048003240C8095
:102940004DF22524048031240C804DF2262404808D
:1029500003240C804DF2272404805A240C804DF26D
:102960002824048003240C804DF22924048073243D
:102970000C804DF22A24048003240C804DF22B2479
:10298000048094240C804DF22C24048003240C80B9
:102990004DF22D2404809F240C804DF22E240480BF
:1029A00003240C804DF22F240480B3240C804DF2BC
:1029B0003024048003240C804DF231240480B92497
:1029C0000C804DF23224048003240C804DF2332419
:1029D0000480C1240C804FF45344048000240C80F4
:1029E0004DF20134048037240C804DF2023404800F
:1029F00000240C804DF20334048052240C804DF2EC
:102A00000434048000240C804DF2053404807B24BF
:102A10000C804DF20634048000240C804DF2073403
:102A2000048099240C804DF20834048000240C802A
:102A30004DF209340480B1240C804DF20A34048034
:102A400000240C804DF20B340480D2240C804DF213
:102A50000C34048000240C804DF20D340480F624E4
:102A60000C804DF20E34048001200880FE48611C69
:102A700001802724811C0C804DF210340480012435
:102A80000C804DF2113404804E240C804DF212342F
:102A9000048001240C804DF2133404808C240C80BB
:102AA0004DF21434048001240C804DF2153404805E
:102AB000BE240C804DF21634048002240C804DF2AA
:102AC000173404800B240C804DF218340480022447
:102AD0000C804DF21934048048240C804DF21A34D5
:102AE000048002240C804DF21B3404804A240C80A4
:102AF0004DF21C34048002240C804DF21D340480FD
:102B00007E240C804DF21E34048002240C804DF291
:102B10001F340480BC240C804DF220340480022435
:102B20000C804DF221340480E1240C804DF22234DB
:102B3000048003240C804DF22334048010240C8084
:102B40004DF22434048003240C804DF2253404809B
:102B500031240C804DF22634048003240C804DF285
:102B6000273404805A240C804DF228340480032436
:102B70000C804DF22934048073240C804DF22A34E9
:102B8000048003240C804DF22B34048094240C80A8
:102B90004DF22C34048003240C804DF22D3404803B
:102BA0009F240C804DF22E34048003240C804DF2BF
:102BB0002F340480B3240C804DF23034048003247D
:102BC0000C804DF231340480B9240C804DF2323443
:102BD000048003240C804DF233340480C1240C8023
:102BE0004FF45444048000240C804DF201440480CE
:102BF00037240C804DF20244048000240C804DF2F6
:102C00000344048052240C804DF2044404800024C8
:102C10000C804DF2054404807B240C804DF2064468
:102C2000048000240C804DF20744048099240C8019
:102C30004DF20844048000240C804DF209440480C5
:102C4000B1240C804DF20A44048000240C804DF223
:102C50000B440480D2240C804DF20C4404800024E8
:102C60000C804DF20D440480F6240C804DF20E448D
:102C7000048001240C804DF20F44048027240C8032
:102C80004DF21044048001240C804DF21144048064
:102C90004E240C804DF21244048001240C804DF22D
:102CA000134404808C240C804DF2144404800124CD
:102CB0000C804DF215440480BE240C804DF2164465
:102CC000048002240C804DF2174404800B240C80F5
:102CD0004DF21844048002240C804DF21944048003
:102CE00048240C804DF21A440480022008805E487B
:102CF000611C01804A24811C0C804DF21C4404801C
:102D000002240C804DF21D4404807E240C804DF280
:102D10001E44048002240C804DF21F440480BC2415
:102D20000C804DF22044048002240C804DF221449A
:102D30000480E1240C804DF22244048003240C80A2
:102D40004DF22344048010240C804DF2244404806E
:102D500003240C804DF22544048031240C804DF274
:102D60002644048003240C804DF2274404805A2416
:102D70000C804DF22844048003240C804DF2294439
:102D8000048073240C804DF22A44048003240C80B8
:102D90004DF22B44048094240C804DF22C4404808A
:102DA00003240C804DF22D4404809F240C804DF2AE
:102DB0002E44048003240C804DF22F440480B3245D
:102DC0000C804DF23044048003240C804DF23144D9
:102DD0000480B9240C804DF23244048003240C801A
:102DE0004DF233440480C1240C804FF455440480D8
:102DF00000240C804DF20154048037240C804DF2E5
:102E00000254048000240C804DF2035404805224A8
:102E10000C804DF20454048000240C804DF20554C3
:102E200004807B240C804DF20654048000240C8026
:102E30004DF20754048099240C804DF2085404800C
:102E400000240C804DF209540480B1240C804DF212
:102E50000A54048000240C804DF20B540480D224C8
:102E60000C804DF20C5401E0FEFF006C0480002445
:102E70000C804DF20D540480F6240C804DF20E545B
:102E8000048001240C804DF20F54048027240C8010
:102E90004DF21054048001240C804DF21154048032
:102EA0004E240C804DF21254048001240C804DF20B
:102EB000135404808C240C804DF21454048001249B
:102EC0000C804DF215540480BE240C804DF2165433
:102ED000048002240C804DF2175404800B240C80D3
:102EE0004DF21854048002240C804DF219540480D1
:102EF00048240C804DF21A54048002240C804DF2B8
:102F00001B5404804A240C804DF21C54048002247B
:102F10000C804DF21D5404807E240C804DF21E5412
:102F2000048002240C804DF21F540480BC240C80C9
:102F30004DF22054048002240C804DF22154048070
:102F4000E1240C804DF22254048003240C804DF2C5
:102F50002354048010240C804DF224540480032454
:102F60000C804DF22554048031240C804DF22654FF
:102F7000048003200880FF48611C01805A24811CC2
:102F80000C804DF22854048003240C804DF2295407
:102F9000048073240C804DF22A54048003240C8096
:102FA0004DF22B54048094240C804DF22C54048058
:102FB00003240C804DF22D5404809F240C804DF28C
:102FC0002E54048003240C804DF22F540480B3242B
:102FD0000C804DF23054048003240C804DF23154A7
:102FE0000480B9240C804DF23254048003240C80F8
:102FF0004DF233540480C1240C804FF456440480B5
:1030000000240C804DF20164048037240C804DF2C2
:103010000264048000240C804DF203640480522476
:103020000C804DF20464048000240C804DF2056491
:1030300004807B240C804DF20664048000240C8004
:103040004DF20764048099240C804DF208640480DA
:1030500000240C804DF209640480B1240C804DF2F0
:103060000A64048000240C804DF20B640480D22496
:103070000C804DF20C64048000240C804DF20D6431
:103080000480F6240C804DF20E64048001240C8030
:103090004DF20F64048027240C804DF210640480EC
:1030A00001240C804DF2116404804E240C804DF2FA
:1030B0001264048001240C804DF2136404808C247B
:1030C0000C804DF21464048001240C804DF21564D0
:1030D0000480BE240C804DF21664048002240C800F
:1030E0004DF2176404800B240C804DF218640480A8
:1030F00002240C804DF21964048048240C804DF2A7
:103100001A64048002240C804DF21B6404804A245B
:103110000C804DF21C64048002240C804DF21D646E
:1031200004807E240C804DF21E64048002240C80F6
:103130004DF21F640480BC240C804DF22064048096
:1031400002240C804DF221640480E1240C804DF2B5
:103150002264048003240C804DF223640480102434
:103160000C804DF22464048003240C804DF225640D
:10317000048031240C804DF22664048003240C80EA
:103180004DF2276404805A240C804DF22864048098
:1031900003240C804DF22964048073240C804DF2CA
:1031A0002A64048003240C804DF22B640480942450
:1031B0000C804DF22C64048003240C804DF22D64AD
:1031C00004809F240C804DF22E64048003240C8024
:1031D0004DF22F640480B3240C804DF230640480DF
:1031E00003240C804DF231640480B9240C804DF22C
:1031F0003264048003200880601C8C1E2080C12162
:10320000A01C01804FF470412180552101804FF2B4
:1032100001012180AA2101804FF202012180522167
:1032200001804FF203012180082101804FF2040147
:103230002180002101804FF430412180082101804C
:103240004BF201012180052101804BF20201218016
:10325000022101804BF203012180052101804BF204
:1032600004012180022101804FF436412180082190
:1032700001804FF435412180502101804FF43741C6
:103280002180002101804BF2017121800021018009
:103290004FF438412180012101804BF6010121804A
:1032A000052101804BF602012180052101804BF6AA
:1032B00003012180052101804FF43C412180002140
:1032C00001804BF601412180002101804BF6024133
:1032D0002180002101804FF44C4121800321018095
:1032E0004CF601412180002101804CF602412180F1
:1032F00000210180991E218001210180591E218019
:1033000084210180238007210180591C21803121E3
:103310000180991C218000210180228001210180EF
:103320004FF47F412180AA2101804FF60171218055
:10333000552101804FF602712180252101804FF631
:1033400003712180012101804FF45451218000211B
:10335000018041142180002101804FF468512180B7
:10336000552101804FF4885020807820FDF7E8F83F
:1033700002E00000FEFF006C4FF4245020804FF468
:1033800030502080BDE810400020FEF769BF0000EB
:10339000034808B50088ADF80000BDF8000008BD7E
:1033A0000000016C08B5012269464FF45A4000F054
:1033B00039F80148808808BD0001002010B5FFF7EA
:1033C000E7FF0120FEF73EFBFFF7E2FF0446012086
:1033D000FEF738FBFFF7DCFF020AE1B2200ABDE886
:1033E0001040FEF725BB0000084A10B51388834241
:1033F00002D952888A4201D8002010BD00F024F87A
:1034000000F006F8BDE81040FFF7D8BF000100202B
:1034100002480349408908807047000000010020ED
:10342000FEFF006C70B50D4606491446088006E0A4
:10343000FFF7AEFF25F8020B6420FEF703FB641EC6
:10344000F6D270BDFEFF006C0B460246AFF3008063
:10345000F0B4DFF850C0144DBCF80C402C80070AC3
:10346000AE1C3780671C2F80C0B23080A01C288023
:10347000100A3080E41C2C80D0B23080BCF80E00E2
:1034800028800A0A3280421C2A80C9B23180811CFD
:103490002980190A3180C01C2880D8B23080F0BC45
:1034A00000F000B900010020FEFF006C2DE9FF4F85
:1034B00081B08A460EA9DFF8EC9091E831002038FF
:1034C00000F0FF080AEB0400401E83B20198B9F82F
:1034D00000B000EB5400401E82B251460198FFF745
:1034E000B7FF002D4FF0000549D12F4808EB4801E8
:1034F00000EB810A00F2744000EB081817E00C2C76
:1035000003D018F8057000260CE01AF80570FAE7E9
:10351000F80701D0039800E0049800F0BDF87F0898
:10352000761CF6B2B6EB540FF2D36D1CEDB2A54289
:10353000E5D326E00C2C08D01C4901EB081000262E
:10354000475D0AEB0500009014E0174808EB4801BE
:1035500000EB8100F3E70398A9F80000F80706D014
:10356000009881B20198304480B2FEF703FF7F08D3
:10357000761CF6B2B6EB540FEDD36D1CEDB2A5423E
:10358000D8D30B48A9F800B04188008805B0491E7F
:10359000BDE8F04F401E8BB282B200210846FFF713
:1035A00057BF000008000020D04A0008444F000820
:1035B000000100202DE9FF4F83B00026DDF8408098
:1035C0001D463446B2464FEA5807DFF86490DFF8EC
:1035D00064B028E0281B401EC1B20A2000F002F9A6
:1035E0000599B1FBF0F00A21B0FBF1F201FB1200EA
:1035F00026B9691E8C4201DA28B101263030C0B2EA
:103600008DE8010502E020228DE804050398B9F851
:10361000003007FB040080B2BBF800200499FFF7DC
:1036200045FF641CE4B2AC42D4D307B0BDE8F08FD0
:103630000A000020080000202DE9FE4F1C4691469C
:103640008A460546114E124FDFF84880DDF830B04B
:1036500014E03188491EA94215DB7188491E514585
:1036600011DB8DE8010A3B88B8F800205146284656
:10367000FFF71CFF05EB590085B2641C2078A0F110
:1036800020015E29E5D9BDE8FE8F00000001002081
:103690000A0000200800002001490880704700004F
:1036A0000000016C0248034900890880704700004F
:1036B00000010020FEFF006C024A1080901C018077
:1036C00070470000FEFF006CFDF796F8FDF78EFDD9
:1036D000FDF7F6FCFDF7B0FCFDF760FDFEF79EFE82
:1036E000104D4FF6FF742046FEF79EFD0122114655
:1036F0002846FDF76EF800F017F800F0CBFA00F05E
:10370000CDF900F04FFA00F05DF900F049FBFEF74B
:1037100019FAFEF719F900F06DF800F0A1F800F0C1
:10372000C9FBE0E700040240FEB51AA0FEF7BCF9B1
:1037300010251EA0CDE900051F230124DE0232461C
:103740001E2102940020FEF74DFD14A0CDE90005D6
:103750001F2332463C2102940020FEF743FD16A0B1
:10376000CDE900051F234FF61F025A2102940020C5
:10377000FEF738FD15A0CDE900051F231A46782174
:1037800002940020FEF72EFDBDE8FE4040F2DC5022
:10379000FCF7D6BECEA2D1A9B5E7D7D3D7DBBACF37
:1037A000B2E2CAD4B3CCD0F200000000CEA2D1A9BC
:1037B000B5E7D7D3000000003422204E543335350E
:1037C0003130203438305838303000007761766539
:1037D00073736861726520323031392D31312D3289
:1037E000380000000246012000E05043491EC9B2E3
:1037F000FBD270473EB511A0FEF756F91448009071
:1038000064234FF4B4724FF496713220FEF750FBEC
:10381000012210210FA08DE807004FF6E0731F2250
:103820004B21C82000F068F84FF496642046FCF75E
:1038300087FE2046BDE83E40FCF782BEB2E2CAD415
:10384000383ACDBCC6ACCFD4CABEB2E2CAD40000AE
:10385000C461000877617665736861726500000075
:103860002DE9F04F1D4B87B003AE0FCB86E80F005C
:103870000024DFF86C9001274FF010084FF6E07A33
:103880004FF4B47B4FF47A752046FEF7E9FC15A09F
:10389000FEF70AF956F82410CDE9001853461F2206
:1038A00002971E21F02000F027F864235A463221A7
:1038B0001E20CDF80090FEF7FBFA2846FCF740FEEC
:1038C0002846FCF73DFE641CE4B2042CDCD3002047
:1038D000FEF7C6FC07B0BDE8F08F0000047B0108CE
:1038E000C4610008B2E2CAD4393AC6C1C4BBD0FD33
:1038F000D7AAB2E2CAD400002DE9FF4F83B08846B0
:1039000010A9044691E86004814628782C4F9B4614
:10391000002852D03888A0EB5601A1424DDB7988AF
:103920008A1B424549DB2978802915D9801BA04292
:1039300043DB424541DB202E33D0CDE9005A059AC6
:10394000182E5B464146204634D0FEF7DDFAA0191A
:1039500084B215F8020FDBE70D290DD0102E12D915
:1039600010228DE806045B4641462046059AFFF783
:103970009DFD0834A4B211E008EB06001FFA80F8A0
:103980004C466D1C0AE08DE842045B4641462046E9
:10399000059AFFF78BFD04EB560084B215F8010F72
:1039A000B6E7CDE9005A5B4641462046059AFEF748
:1039B00099FBCCE7FEF71EFBC9E707B0BDE8F08F27
:1039C000000100202DE9F84300242CA0FEF76CF83C
:1039D000304D4FF6FF77009768881421143883B272
:1039E0002888401E82B20020FEF7EEFC2A4EA04638
:1039F000CDF8008004EBC400698800EB041000EBF4
:103A000051012A881E2300EB520036F8142050384A
:103A10003239FEF70BFA641CE4B2052CE8D340F20D
:103A2000DC584046FCF78CFD009768881421143858
:103A300083B22888401E82B20020FEF7C5FC002415
:103A40005FF00107009704EBC400698800EB0410E5
:103A500000EB51012A881E2300EB520036F8142097
:103A600050383239FEF7E2F9641CE4B2052CE9D390
:103A70004046BDE8F843FCF763BD0000B2E2CAD49B
:103A8000343A475549BBADD4B2CCEEB3E4B2E2CA46
:103A9000D4000000000100200C0000202DE9FE43AE
:103AA000374C4FF6FF70009060880021401E83B2B3
:103AB0002088401E82B20846FEF786FC102631A000
:103AC000CDE9000601254FF6E07843461F221E216E
:103AD00002951420FFF710FF40F2DC594846FCF72E
:103AE0002FFD4FF47847009760880021401E83B275
:103AF0002088401E82B20846FEF766FC23A0CDE96E
:103B0000000643461F221E2102951420FFF7F4FEF3
:103B10004846FCF715FD4FF4FC60009060880021DA
:103B2000401E83B22088401E82B20846FEF74CFC3D
:103B300018A0CDE9000643461F221E21029514203D
:103B4000FFF7DAFE4846FCF7FBFC1F200090608878
:103B50000021401E83B22088401E82B20846FEF734
:103B600033FC0EA0CDE9000643463A461E210295DD
:103B70001420FFF7C1FE4846BDE8FE43FCF7E0BC59
:103B800000010020424C20546573740052454420CB
:103B900000000000475245454E200000424C55456C
:103BA000200000002DE9F843002431A0FDF77CFF40
:103BB000354D4FF6FF78CDF8008068881421143811
:103BC00083B22888401E82B20020FEF7FDFB2F4EF4
:103BD0002F4F00BF36F8140038806988C4EB0410FA
:103BE00000EB5101A1F1140293B22A88503900EB85
:103BF0005200A0F11402503892B289B280B2FEF79E
:103C0000C5FB641CE4B2052CE4D340F2DC59484601
:103C1000FCF796FCCDF8008068881421143883B234
:103C20002888401E82B20020FEF7CEFB5FF0000421
:103C300036F8140038806988C4EB041000EB510199
:103C4000A1F1140293B22A88503900EB5200A0F17E
:103C50001402503892B289B280B2FEF733FB641C72
:103C6000E4B2052CE4D34846BDE8F843FCF768BC51
:103C7000B2E2CAD4333A475549BED8D0CECCEEB31F
:103C8000E4B2E2CAD4000000000100200C000020D1
:103C9000080000202DE9F04F8BB00020089009901B
:103CA0000A90142103A8FCF7C3FA2DA0FDF7FCFE2F
:103CB0004FF6FF70009030484188028814398BB26B
:103CC00014210020FEF780FBFFF76CFB02462BA1BE
:103CD00008A8FDF741FB0127102608A88DE8C100C0
:103CE0004FF6E07423461F2219213220FFF704FE0D
:103CF000B046DFF89090244E00250DF10C0AA34643
:103D000039F81500308005EBC50000EB051404F10F
:103D1000410304F12D0132221E20FEF7D3FA04F1F3
:103D200037012820FFF760FB024618A103A8FDF722
:103D300013FBCDF800A0CDE9018704F12F015B460C
:103D400032883C20FFF7D8FD6D1CEDB2072DD7D38C
:103D500040F2DC50FCF7F4FB0BB0BDE8F08F000044
:103D6000B2E2CAD4323AB6C14944BACDD1D5C9AB10
:103D7000D6B5B2E2CAD400000001002049443A306E
:103D80007825780016000020080000207265616424
:103D900020636F6C6F723A30782530345800000021
:103DA0002DE9FC47002439A0FDF77EFE3E4D4FF67D
:103DB000FF78CDF8008068881421143883B22888F1
:103DC000401E82B20020FEF7FFFA384E384F00BF87
:103DD00036F8140038806988C4EB041000EB5102F7
:103DE000A2F1140081B2288804EB8403400800EBA0
:103DF0008300A0F1150C1FFA8CF3CDE90031493A8C
:103E000093B2A0F13302503892B280B2FDF734FE83
:103E1000641CE4B2052CDBD340F2DC594846FCF7C5
:103E20008FFBCDF8008068881421143883B228886D
:103E3000401E82B20020FEF7C7FA002404EB840380
:103E400036F8140038806988C4EB041000EB510286
:103E5000A2F1140081B22888493A400800EB83009F
:103E6000A0F115039BB2CDE9003193B2A0F133026A
:103E7000503892B280B2FDF731FF641CE4B2052CD9
:103E8000DCD34846BDE8FC47FCF75ABBB2E2CAD4D3
:103E9000353A47554920547269616E676C65CCEEBE
:103EA000B3E4B2E2CAD40000000100200C000020FC
:103EB0000800002008B54FF0000AD14600F098FC39
:103EC00048A0FDF7F1FD4C4C0126009620884BA33D
:103ED000183880B210220021FFF7AEFBDFF82081F6
:103EE0004FF478401223A8F8000000902088A0F139
:103EF0001C018AB2323880B20221FEF765FA414DC8
:103F0000002069688847287D000658D5288A2388BC
:103F1000984254D2698A6288914250D2A3F1180221
:103F200090421CDD10291AD22EA0FDF7BDFD00968F
:103F3000208832A3183880B210220021FFF77CFBC2
:103F4000A8F80090CDF8009020881223A0F11C0161
:103F50008AB2323880B20221FEF736FA2FE0A3F19E
:103F6000320C604527DD1C3B984224DA142922D20A
:103F70004FF00509BAFBF9F209FB12A1DFF888B08E
:103F80009AB212233BF8110000901FFA8CF0022124
:103F9000FEF71AFABAFBF9F209FB12A13BF811007D
:103FA000A8F800000AF1010181461FFA81FA0A20EF
:103FB000FCF7C6FA03E0B8F8002000F0C1FB384671
:103FC0007F1C0F289CD986F31388BFF34F8F0F48AF
:103FD00001680F4A01F4E06111430160BFF34F8FA4
:103FE00000BFFDE7B2E2CAD431303A546F7563685E
:103FF000B2E2CAD420202000000100205253540015
:10400000080000202C0000200C0000200CED00E037
:104010000400FA052DE9FF4F81B00D46DDE9108758
:10402000464906464FF47840DDF838B0DDF8489050
:1040300008809246012442A310228C21282000945B
:10404000FFF7FAFA3FA310228C2178200094FFF7A3
:10405000F3FA3DA31022A02128200094FFF7ECFAE8
:104060003AA31022A02178200094FFF7E5FA38A3A4
:104070001022B42128200094FFF7DEFA35A3102285
:10408000B42178200094FFF7D7FA33A31022C82177
:1040900028200094FFF7D0FA30A31022C8217820FE
:1040A0000094FFF7C9FA2EA31022DC2128200094E7
:1040B000FFF7C2FA1024042332468C2140200094DA
:1040C000FFF778FA04232A468C2190200094FFF70A
:1040D00071FA04235246A02140200094FFF76AFAA7
:1040E00004230094A0219020049AFFF763FA04238C
:1040F0005A46B42140200094FFF75CFA0094042350
:10410000B42190200F9AFFF755FA04234246C821A4
:1041100040200094FFF74EFA04233A46C82190202D
:104120000094FFF747FA03234A46DC2160200094FD
:10413000FFF740FA05B0BDE8F08F0000080000204E
:1041400078313A0079313A0078323A0079323A00DF
:1041500078333A0079333A0078343A0079343A00C7
:104160006661632069733A002DE9F04FDFF8F4B31C
:104170001F202DED028B89B0ABF80000FA484FF6F6
:10418000FF7900254E46A0F800902F465C46304649
:10419000FEF74AF84FF4784AA4F800A03046FEF73C
:1041A00043F8A846A4F800800126F0A31022282195
:1041B0000A200096FFF740FAF3A3102238210A20C4
:1041C0000096FFF739FAF7A3102248210A2000963B
:1041D000FFF732FAFAA3102258210A200096FFF7BF
:1041E0002BFAFEA3102268210A200096FFF724FA7A
:1041F00014215246084600F0BDFAFC4C84F81480A5
:104200009FEDFB0A84ED060A9FEDFA8A4FF47A7857
:10421000616801208847207DB6EB901F44D120F0D3
:104220004000207505A8218A20F8251000EB8500A4
:104230006D1C0027618AEDB24180012D06D0022D50
:1042400010D0032D1DD0042D2ED139E014214A4663
:10425000084600F08FFAE84852460088143880B2C9
:1042600014211FE0E4484A4614210088143880B223
:1042700000F080FAE04852464088143881B2142099
:1042800010E0DD484A464088143881B2142000F01E
:1042900071FAD94852464088143881B2D64800880D
:1042A000143880B200F066FA0A20FCF749F97F1C46
:1042B000BFB24745ACD909B0BDEC028BBDE8F08F69
:1042C000BDF81400BDF81810401A00D54042BDF8E2
:1042D0001610BDF81A20891A00D54942404301FB47
:1042E0000100FBF7B7FF41EC100BFDF759F851EC5B
:1042F000100BFBF7BCFF80B20090BDF81C00BDF8AE
:104300002010411A00D54942BDF81E00BDF82220F8
:10431000801A00D54042494340430844FBF79AFFC6
:1043200041EC100BFDF73CF851EC100BFBF79FFF35
:10433000009980B200EE101AB04DF8EE400A00EE7F
:10434000100AB8EE400AC0EE808A18EE901A4A1998
:10435000AB498A427DD2009900297AD0002878D0D2
:10436000BDF81400BDF81C10401A00D54042BDF83D
:104370001610BDF81E20891A00D54942404301FBA2
:104380000100FBF767FF41EC100BFDF709F851EC5A
:10439000100BFBF76CFF80B20090BDF81800BDF861
:1043A0002010401A00D54042BDF81A10BDF8222056
:1043B000891A00D54942404301FB0100FBF74AFF3F
:1043C00041EC100BFCF7ECFF51EC100BFBF74FFF2F
:1043D000009980B200EE101A8849F8EE400A00EE0B
:1043E000100AB8EE400AC0EE808A18EE900A014426
:1043F000834881424AD2BDF81800BDF81C10411A0A
:1044000000D54942BDF81A00BDF81E20801A00D51B
:104410004042494340430844FBF71CFF41EC100B6A
:10442000FCF7BEFF51EC100BFBF721FF85B2BDF886
:104430001400BDF82010411A00D54942BDF81600FD
:10444000BDF82220801A00D5404249434043084429
:1044500000E03DE0FBF7FEFE41EC100BFCF7A0FF97
:1044600051EC100BFBF703FF00EE105A80B26349CA
:10447000F8EE400A00EE100AB8EE400AC0EE808A5C
:1044800018EE900A01445E48814250D35A480025F4
:104490004A46418800881439143889B280B200F045
:1044A00069F914215246084600F064F928EE880A9A
:1044B000BDF81E30BDF820100193BCEEC00A10EE0E
:1044C000100A82B2BDF822000492CDE9021020E069
:1044D000494800254A46418800881439143889B271
:1044E00080B200F047F914215246084600F042F924
:1044F00028EE880ABDF82030BDF81E20BCEEC00AA8
:1045000010EE100A81B2BDF82200CDE90301CDE919
:104510000123BDF81C000090BDF81A30BDF818202A
:10452000BDF81610BDF81400FFF774FD70E6BDF875
:104530001850BDF81430304AE81A00EE100A1088FE
:10454000F8EEC00AA0F1280100EE101AE918B8EE42
:10455000C00AC0EE201A00EE101AB8EE401AC4EDE0
:10456000061A4FE0080000200A000020506C656128
:1045700073652075736520746865207374796C7534
:104580007320636C69636B007468652063726F737A
:1045900073206F6E207468652073637265656E2E7C
:1045A000000000005468652063726F7373207769A0
:1045B0006C6C20616C77617973206D6F766500009B
:1045C000756E74696C207468652073637265656EBE
:1045D0002061646A7573746D656E7400697320631D
:1045E0006F6D706C657465642E0000002C000020F7
:1045F000000000000000C84200010020CDCC8CC0AB
:104600003433130000EE100AF8EE400AB6EE000A4A
:1046100041EEC10A60EE800AFDEEE00A10EE901A4B
:104620002184BDF81E50BDF81630E91A00EE901A2C
:104630005188B8EEE02AA1F1280200EE902AEA188B
:10464000F8EEE00A80EE821A00EE902AB8EE602AB8
:1046500000EE901AF8EE600A84ED071A41EE420A65
:1046600020EE800ABDEEC00A10EE102ABDEEE10A6F
:10467000628410EE102A002A00DA5242022A08DC74
:10468000BDEEC10A10EE102A002A00DA5242022AB8
:1046900028DD14391438002589B280B24A4600F06A
:1046A00069F814215246084600F064F818A3102255
:1046B0001A2128200096FEF7BFFF94F8240048B185
:1046C0005FF0000084F8240030B11648902101709A
:1046D000D02105E00120F5E71248D021017090219A
:1046E000417095E51F20ABF800004C464846FDF7A9
:1046F0009BFD0DA310226E2123200096FEF79CFF48
:104700004046FBF71DFF2046FDF78EFDD3E5000078
:104710005450204E65656420726561646A757374D7
:104720002100000028000020546F75636820536347
:104730007265656E2041646A757374204F4B210069
:1047400070B506460A480C4602803046FDF712FE58
:10475000751CA8B22146FDF70DFE641CA1B23046BF
:10476000FDF708FEA1B2A8B2BDE87040FDF702BE99
:10477000080000202DE9F843DFF8709004460D3062
:10478000A9F8002082B2A4F10C000D4680B20B46BD
:10479000FDF7A2FD05F10D0083B2193881B2224662
:1047A0001046FDF799FD6E1C04F10108B1B21FFA25
:1047B00088F0FDF7DFFDB1B2661EB0B2FDF7DAFD9D
:1047C0006F1EB9B21FFA88F0FDF7D4FDB9B2B0B2CE
:1047D000FDF7D0FD002000900623B9F800202946FF
:1047E0002046FDF723FBBDE8F88300000800002009
:1047F000064910B5881E00F097F84FF6FF70FDF7D8
:1048000013FDFFF7B1FC012010BD00003E000020A9
:104810002DE9F0470025294F80464FF400562C46DD
:104820002A4631463846FBF7D4FF0022B10038460D
:10483000FBF7CFFFDFF888A0002210215046FBF7DE
:10484000C8FF404600F01EF90620FDF7FBF80022E5
:1048500031463846FBF7BDFF0120FDF7F3F8012292
:1048600031463846FBF7B5FF002231463846FBF7A4
:10487000B0FF4FF6FF784FF4804900BF08EA4404C8
:10488000002231463846FBF7A4FF01223146384664
:10489000FBF79FFF49463846FBF796FF08B1641CBB
:1048A000A4B26D1CEDB2102DE8D324090122102111
:1048B0005046FBF78EFF2046BDE8F087000402401B
:1048C00000080240FEB5064600256C463046FFF75C
:1048D0009FFF24F815006D1CADB2052DF6D3002006
:1048E000431C99B20CE000BF34F8102034F811508A
:1048F000AA4203D924F8105024F81120491C89B287
:104900000529F1D398B20428EAD300215FF0010011
:1049100034F81020401C114480B289B20428F7D327
:104920000320B1FBF0F0FEBD2DE9F041074C064637
:104930000D462078FFF7C6FF07466078FFF7C2FFF5
:10494000378028800120BDE8F08100002800002089
:104950007FB50C460546694602A8FFF7E5FF00282B
:104960002FD001A903A8FFF7DFFF002829D0BDF849
:104970000C30BDF80820934203D803F13200824284
:1049800005D39A421FD802F1320083421BD2BDF8F0
:104990000410BDF80000814203D801F13206B04294
:1049A00004D388420FD8323081420CD2D01840084C
:1049B0002880BDF80000BDF804100844400820809D
:1049C000012004B070BD0020FBE7000070B5054673
:1049D00020212A48FBF7F8FE294C30B1207D010642
:1049E00040D520F08000207543E0254800F11201F9
:1049F000103015B1FFF7ACFF2AE0FFF7A9FF38B37D
:104A0000B4F9200094ED061A00EE100A208AF8EEA0
:104A1000C00A00EE100AB8EE400A41EE000ABCEEF1
:104A2000E00A10EE100A2082B4F9220094ED071A71
:104A300000EE100A608A00EE900AB8EEC00AF8EEA6
:104A4000600A01EE200ABCEEC00A10EE100A608275
:104A5000207D00060DD4C0202075208AA081608AA8
:104A6000E08106E00020A081E0814FF6FF70208207
:104A70006082207D00F0800070BD000000080240D0
:104A80002C0000202DE9F041104F054600244FF482
:104A900000484FF40056280601D5012200E000220C
:104AA00041463846FBF795FE6806050E0022314662
:104AB0003846FBF78EFE012231463846FBF789FE69
:104AC000641CE4B2082CE6D3BDE8F0810004024087
:104AD00000000000000000000000000000000404CE
:104AE000040404040004000000140A0A000000008A
:104AF00000000000000014143F140A3F0A0A0000DE
:104B000000041E1505060C14150F040000001215F4
:104B10000D0A142C2A1200000000040A0A1E1515A2
:104B20000936000000020201000000000000000041
:104B300000201008080808080810200000020408D7
:104B4000080808080804020000000004150E0E15ED
:104B50000400000000000404041F0404040000001A
:104B60000000000000000000000202010000000040
:104B7000001F000000000000000000000000000016
:104B800000020000001008080804040202020100EC
:104B900000000E1111111111110E00000000040689
:104BA00004040404040E000000000E1111080402A5
:104BB000011F000000000E11100C1010110E00005B
:104BC0000000080C0A0A091E0818000000001F0156
:104BD000010F1010110E000000000E09010F11113D
:104BE000110E000000001F09080404040404000062
:104BF00000000E11110E1111110E000000000E1117
:104C000011111E10120E0000000000000400000030
:104C10000004000000000000000400000004040084
:104C2000002010080402040810200000000000000A
:104C30001F00001F000000000002040810201008E0
:104C40000402000000000E1111080404000400001A
:104C500000000E111915151D011E000000000404AE
:104C60000C0A0A1E1233000000000F12120E12125C
:104C7000120F000000001E1101010101110E0000C1
:104C800000000F1212121212120F000000001F1269
:104C90000A0E0A02121F000000001F120A0E0A026A
:104CA0000207000000001C1201013911120C000063
:104CB00000003312121E12121233000000001F04F3
:104CC00004040404041F000000003E08080808084B
:104CD00008090700000037120A060A0A1237000006
:104CE0000000070202020202223F000000001B1B1C
:104CF0001B1B15151515000000003B1216161A1A7D
:104D00001217000000000E1111111111110E0000F8
:104D100000000F12120E02020207000000000E1126
:104D200011111117190E180000000F12120E0A129D
:104D30001237000000001E1101060810110F0000BC
:104D400000001F1504040404040E000000003312C8
:104D500012121212120C000000003312120A0A0C76
:104D60000404000000001515150E0A0A0A0A0000C6
:104D700000001B0A0A04040A0A1B000000001B0AA8
:104D80000A040404040E000000001F0908040402C1
:104D9000121F0000001C04040404040404041C008A
:104DA000000202020404080808100000000E0808AF
:104DB0000808080808080E0000040A0000000000A7
:104DC0000000000000000000000000000000003FA4
:104DD00000040000000000000000000000000000CF
:104DE000000C121C123C000000000302020E121202
:104DF000120E000000000000001C1202021C000045
:104E000000001810101C1212123C000000000000DC
:104E1000000C121E021C000000003804041E0404D2
:104E2000041E000000000000003C120C021E221CA8
:104E300000000302020E12121237000000000400EC
:104E400000060404040E000000000800000C08081E
:104E50000808080700000302023A0A0E1237000091
:104E60000000070404040404041F00000000000004
:104E7000000F15151515000000000000000F12129C
:104E80001237000000000000000C1212120C00008B
:104E900000000000000F1212120E020700000000B6
:104EA000001C1212121C103800000000001B060229
:104EB0000207000000000000001E020C101E00008F
:104EC00000000004040E04040418000000000000A8
:104ED000001B1212123C0000000000000037120AF2
:104EE0000C040000000000000015150E0A0A000066
:104EF00000000000001B0A040A1B00000000000064
:104F00000037120A0C04040300000000001E08040D
:104F1000041E000000180808080408080808180003
:104F20000808080808080808080808080006040413
:104F30000408040404040600022518000000000010
:104F40000000000000000000000000000000000061
:104F50000000000000000008080808080808000019
:104F60001818000000486C24120000000000000027
:104F7000000000000000002424247F1212127F127F
:104F8000121200000000081C2A2A0A0C1828282ADD
:104F90002A1C080800000022251515152A5854540B
:104FA000542200000000000C1212120A762529116A
:104FB000916E0000000606040300000000000000DF
:104FC0000000000000402010100808080808081021
:104FD00010204000000204080810101010101008E3
:104FE000080402000000000008086B1C1C6B080885
:104FF0000000000000000000080808087F080808FA
:105000000800000000000000000000000000000098
:10501000060604030000000000000000FE0000007F
:105020000000000000000000000000000000000080
:1050300006060000000080404020201010080804F0
:10504000040202000000001824424242424242424E
:1050500024180000000000080E08080808080808C6
:10506000083E00000000003C42424220201008049C
:10507000427E00000000003C424220182040404296
:10508000221C0000000000203028242422227E2040
:10509000207800000000007E0202021A26404042F2
:1050A000221C0000000000382402021A264242425C
:1050B000241800000000007E2222101008080808B2
:1050C000080800000000003C4242422418244242EA
:1050D000423C000000000018244242426458404014
:1050E000241C000000000000000018180000000050
:1050F0001818000000000000000000080000000078
:1051000000080804000000402010080402040810F1
:10511000204000000000000000007F0000007F0031
:1051200000000000000000020408102040201008C9
:10513000040200000000003C4242464020101000E3
:10514000181800000000001C225A555555552D42D4
:10515000221C00000000000808181414243C2242FD
:1051600042E700000000001F2222221E224242428B
:10517000221F00000000007C4242010101010142A7
:10518000221C00000000001F2242424242424242D2
:10519000221F00000000003F4212121E12120242A3
:1051A000423F00000000003F4212121E1212020293
:1051B000020700000000003C2222010101712122AF
:1051C000221C0000000000E7424242427E4242426E
:1051D00042E700000000003E080808080808080828
:1051E000083E00000000007C10101010101010107D
:1051F0001010110F0000007722120A0E0A1212225C
:1052000022770000000000070202020202020202EE
:10521000427F000000000077363636362A2A2A2AD6
:105220002A6B0000000000E346464A4A525252628E
:10523000624700000000001C2241414141414141C0
:10524000221C00000000003F424242423E02020295
:10525000020700000000001C2241414141414D5322
:10526000321C60000000003F4242423E12122222E5
:1052700042C700000000007C424202041820404265
:10528000423E00000000007F49080808080808089E
:10529000081C0000000000E74242424242424242F3
:1052A000423C0000000000E742422224241414186B
:1052B000080800000000006B49494949555536224D
:1052C00022220000000000E7422424181818242499
:1052D00042E70000000000772222141408080808A2
:1052E000081C00000000007E212010100804044269
:1052F000423F000000780808080808080808080865
:1053000008087800000002020404080808101020B1
:1053100020204040001E101010101010101010100F
:1053200010101E00003844000000000000000000C3
:10533000000000000000000000000000000000006D
:10534000000000FF00060800000000000000000050
:1053500000000000000000000000003C42784442D1
:1053600042FC0000000000030202021A26424242F0
:10537000261A00000000000000000038440202026B
:1053800044380000000000604040407844424242FF
:1053900064D80000000000000000003C427E0202D1
:1053A000423C0000000000F08808087E0808080859
:1053B000083E0000000000000000007C22221C02C9
:1053C0003C42423C000000030202023A4642424292
:1053D00042E700000000000C0C00000E080808085E
:1053E000083E00000000003030000038202020205F
:1053F0002020221E0000000302020272120A16126E
:10540000227700000000000E0808080808080808B5
:10541000083E0000000000000000007F929292927F
:1054200092B70000000000000000003B46424242EC
:1054300042E70000000000000000003C42424242FF
:10544000423C0000000000000000001B26424242D7
:10545000221E020700000000000000784442424281
:10546000447840E000000000000000774C04040491
:10547000041F0000000000000000007C42023C40CD
:10548000423E0000000000000008083E080808082E
:105490000830000000000000000000634242424269
:1054A00062DC000000000000000000E74224241439
:1054B0000808000000000000000000EB49495555B5
:1054C00022220000000000000000007624181818B6
:1054D000246E000000000000000000E742242414B5
:1054E00018080807000000000000007E22100808CD
:1054F000447E000000C020202020201020202020FA
:105500002020C000101010101010101010101010DB
:1055100010101010000608080808081008080808ED
:10552000080806000C32C200000000000000000065
:1055300000000000C9EE000027FC140414A4811030
:1055400042084040104017FC2040E0E02150224833
:105550002C4620400040DBDA1104112411241124D0
:105560001124FD24112411241124112411241D249B
:10557000E124422402040404CAD002000100000015
:105580007FFC0100010001003FF8210821082108EB
:1055900021082128211001000100CEA21108154880
:1055A0002548455097DE102420146FD4A01427946A
:1055B000249424A824C8249428143022D1A93FF884
:1055C00001007FFE41029D7401001D7000003FF844
:1055D000000800081FF8000800083FF80008B5E7B9
:1055E0000100010001003FF82108210821083FF8CF
:1055F0002108210821083FF8210A0102010200FECA
:10560000D7D300007FF80010002000400180010087
:10561000FFFE010001000100010001000100050082
:105620000200D3D002000200FFFE040004000FF0CD
:10563000081018102FF0481088100FF008100810EC
:1056400008500820CFDE00007BF84A08520853F8C3
:10565000620852084BF84A444A486A3052204210C5
:10566000428843064200B9AB0080048004800840B1
:105670000840102020104208820604000440082040
:1056800010203FF010100000CBBE00003FF80008D3
:1056900000087FE8000800081F881088108810881C
:1056A00010881F88108800280010BBB6008000807A
:1056B000FC8004FC050449082A401440104028A03E
:1056C00024A045108110020804040802D3AD000094
:1056D0002080133C122402240224F22412241224D7
:1056E00012B4132812201020282047FE0000C4FA0C
:1056F0000900090011FC3204544899501148124421
:1057000014441140108002005104511290120FF005
:10571000B4BF00000020102013FE202026244A24BD
:105720007A241224222423FC7C20002204227822C2
:10573000003CC9AB0000000004000FF01020202046
:105740007FFC20842084208420843FF820002002D5
:1057500020021FFECCEE00000000204023FE20406F
:1057600079FC220423FC220423FC220423FC3A04B7
:1057700065FA01980204B3E40000010001007FFE15
:1057800002200410040808043FFC044204400440C2
:10579000044208421042607EBED800000000207E15
:1057A0003E804880488048FE48827F8208820C8282
:1057B00014FA12842280218040FED0CE0000000026
:1057C0007F842208223022C0220222047FC8223095
:1057D00022C222022204220822304040BBAD000037
:1057E00000007FFE00000FF0111011101110511277
:1057F0005FF25112511251124FF240027FFCD4B2AB
:10580000000000007FFE47E24812481247E24FF2D4
:10581000501250125112511242924472580A3FFCD7
:10582000CDBC000000003FFE440247F24C22536210
:10583000408243625E1A41824062430240C240227B
:105840003FFCC6AC000000402040204020403FFE0E
:105850002000200020003FE0201020102010201009
:1058600040104010CFD4000000003FFC2004200472
:105870003FFC200420041FF8244414481448144812
:105880000C5004407FFECABE000000003FFC000038
:10589000000000007FFE00800890088810881084B7
:1058A0002084208240820780B2CB000000200820A4
:1058B0007FFE002000783F881108089009207FFEB5
:1058C000018003400D30310C4002B5A500000010EE
:1058D000081004203FF8210421043FFC2104210486
:1058E0003FF801007FFE010001000100D6D000005A
:1058F0000100010001003FFC2104210421042104D6
:10590000210421043FFC0100010001000100D3A299
:105910000000000008207FFE0820092001003FF859
:105920002108210821081FF4014002200C10700EEC
:10593000CEC400000100010000803F7C0810081068
:1059400004100420022002400180018002601C1823
:10595000E006D7DB1040102023FE22024800F9FCAD
:105960001000200043FEF820412801241A22E422DE
:1059700040A00040BACF010001000280044008208E
:105980003018CFE6000000001FF0101010101010AB
:1059900010101FF01010C1C10000010001007FFEB7
:1059A00000003FF820083FF83FF8400647C248246F
:1059B000082008221022603EB6C8000000000080C7
:1059C0003FFE44105FFC4410441043F040005FF879
:1059D0004408423041C04360BC1EB2E2000427C408
:1059E00014441454855445544554155415542554A1
:1059F000E55421042284224424140808CAD400282F
:105A000020241024102007FE0020F02017E0112091
:105A100011101110151019CA170A02060002B3CC92
:105A200008001DFCF10411041104FDFC10003000FD
:105A300039FE5420542091FC1020102013FE100039
:105A4000D0F2010000803FFE200023F8201020A0AB
:105A500020402FFE204220442040404040408140D2
:105A60000080B5F70000000023FE122202FA022295
:105A7000E22212FE1272128A128A128A16BA1A428E
:105A80001202040EB9E20000010001041108090825
:105A9000091009207FFE04400440044004400842ED
:105AA00008421042607CB0E60000000048FE490059
:105AB000490049007EFE41824144794445284528F9
:105AC0004510452846440382C8A800001000100075
:105AD00013FC7D0411041904188434885048505074
